:100000000C9460010C9491010C9491010C94910159
:100010000C9491010C9491010C9491010C94910118
:100020000C9491010C9491010C9491010C94910108
:100030000C9491010C9491010C9491010C949101F8
:100040000C9491010C9491010C9491010C949101E8
:100050000C9491010C9491010C9491010C947203F5
:100060000C9491010C94E6030C94BC030C94910144
:100070000C9491010C9491010C9491010C949101B8
:100080000C9491010C9491010C9491010C949101A8
:100090000C9491010C9491010C9491010C94910198
:1000A0000C9491010C9491010C9491010C94910188
:1000B0000C9491010C9491010C9491010C94910178
:1000C0000C9491010C9491010C9491010C94910168
:1000D0000C9491010C9491010C9491010C94910158
:1000E0000C9491010C94D6050C943E020C948E0253
:1000F0000C9480050C940D060C9482050C94080257
:100100000C948E050C94E2050C94E7010C946805A0
:100110000C9472050C9422050C9426020C94210375
:100120000C94E6050C9488050C9438020C94E201BA
:100130000C94C2050C941C050C9434020C940E0211
:100140000C9420020C94F5050C945E050C940B069F
:100150000C94B4050C942E020C942A020C94CC0539
:100160000C94E4050C94FD010C9413060C940F06FA
:100170000C9478050C94DC050C94FF050C947E051A
:100180000C94D4020C941C020C9401020C940506ED
:100190000C9405020C9412020C949C020C9418020C
:1001A0000C9450050C946B020C9411060C94F901FC
:1001B0000C947A020C94280500000A0B02090C0D1D
:1001C0000E0807030401000000000000000000000A
:1001D000000000000000000000000000000000001F
:1001E00000000000121110000000000000000000DC
:1001F00000000000000000000000000000000000FF
:100200002200250028002B002E00310034000201BE
:100210000000050108010B01000021002400270057
:100220002A002D0030003300010100000401070105
:100230000A0105050505070508080808020202026B
:100240000A0A080804040404010101010101010172
:100250000303030303030303040707070C0C0C0C3D
:100260000C0C0C0C02020202060606060606060626
:100270000B0B0B0B0B0B0B0B0102102020080810B3
:100280002040102040800201020108040201010206
:1002900004081020408080402010080402018004DF
:1002A000020180402010080402010804020101023A
:1002B000040810204080010204081020408013062A
:1002C00011241FBECFEFD1E2DEBFCDBF00E00CBFD7
:1002D00012E0A0E0B2E0E4E9FCE000E00BBF02C005
:1002E00007900D92A231B107D9F722E0A2E1B2E066
:1002F00001C01D92AB3BB207E1F711E0C0E6D1E0CF
:1003000000E006C021970109802FFE010E944006EF
:10031000CF35D10780E00807A9F70E941C040C9490
:1003200048060C94000090E0FC01E858FD4F249131
:100330008E5C9D4FFC018491882399F090E0880F9A
:10034000991FFC01E85EFD4FA591B491FC01E250BC
:10035000FE4F859194918FB7F894EC91E22BEC933A
:100360008FBF0895282F30E0F901E854FE4F949193
:10037000F901E858FD4F44912E5C3D4FF90124915D
:10038000222309F435C0992311F191509231F8F4E8
:10039000E92FF0E08827E053FE4F8F4F0C94400682
:1003A00001020502E201F901FD01E70108020E0266
:1003B000120218021C02200226022A02E7012E0263
:1003C00034023802809180008F7780938000E22F82
:1003D000F0E0EE0FFF1FE250FE4FA591B4918FB7F2
:1003E000F894EC91611148C040954E234C938FBF17
:1003F0000895809180008F7DE8CF80918000877F75
:10040000E4CF84B58F7784BDE2CF84B58F7DFBCFF9
:100410008091B0008F778093B000D9CF8091B000E9
:100420008F7DF9CF809190008F7780939000CFCF10
:10043000809190008F7DF9CF80919000877FF5CFDC
:100440008091A0008F778093A000C1CF8091A00001
:100450008F7DF9CF8091A000877FF5CF809120011B
:100460008F7780932001B3CF809120018F7DF9CFCA
:1004700080912001877FF5CF4E2BB8CFAF92BF92EE
:10048000CF92DF92EF92FF920F931F93CF93DF9360
:100490006C017B018B01040F151FEB015E01AE188F
:1004A000BF08C017D10759F06991D601ED91FC91B1
:1004B0000190F081E02DC6011995892B79F7C501CE
:1004C000DF91CF911F910F91FF90EF90DF90CF9030
:1004D000BF90AF900895FC01538D448D252F30E0DF
:1004E000842F90E0821B930B541710F0CF96089541
:1004F00001970895FC01918D828D981761F0A28D6E
:10050000AE0FBF2FB11D5D968C91928D9F5F9F7333
:10051000928F90E008958FEF9FEF0895FC01918DE9
:10052000828D981731F0828DE80FF11D858D90E056
:1005300008958FEF9FEF0895FC01918D228D892FF3
:1005400090E0805C9F4F821B91098F7399270895DB
:1005500085E192E00E949C0221E0892B09F420E0D1
:10056000822F0895FC01A48DA80FB92FB11DA35AA5
:10057000BF4F2C91848D90E001968F739927848FC3
:10058000A689B7892C93A089B1898C9183708064E6
:100590008C93938D848D981306C00288F389E02D87
:1005A00080818F7D80830895EF92FF920F931F9338
:1005B000CF93DF93EC0181E0888F9B8D8C8D981316
:1005C0001AC0E889F989808185FF15C09FB7F89422
:1005D000EE89FF896083E889F9898081837080646E
:1005E00080839FBF81E090E0DF91CF911F910F91B9
:1005F000FF90EF900895F62E0B8D10E00F5F1F4FC8
:100600000F731127E02E8C8D8E110CC00FB607FCD6
:10061000FACFE889F989808185FFF5CFCE010E9464
:10062000B202F1CFEB8DEC0FFD2FF11DE35AFF4F1E
:10063000F0829FB7F8940B8FEA89FB8980818062F2
:10064000CFCFCF93DF93EC01888D8823B9F0AA89AF
:10065000BB89E889F9898C9185FD03C0808186FD7D
:100660000DC00FB607FCF7CF8C9185FFF2CF8081CC
:1006700085FFEDCFCE010E94B202E9CFDF91CF918D
:10068000089580E090E0892B29F00E94A802811152
:100690000E94000080E090E0892B49F080E090E02B
:1006A000892B29F00E94000081110E94000080E047
:1006B00090E0892B49F080E090E0892B29F00E949E
:1006C000000081110E94000080E090E0892B49F039
:1006D00080E090E0892B29F00E94000081110C94A9
:1006E000000008951F920F920FB60F9211242F93BE
:1006F0003F938F939F93AF93BF938091B702909155
:10070000B802A091B902B091BA023091B60223E0CA
:10071000230F2D3758F50196A11DB11D2093B60268
:100720008093B7029093B802A093B902B093BA0233
:100730008091B2029091B302A091B402B091B5023F
:100740000196A11DB11D8093B2029093B302A093B4
:10075000B402B093B502BF91AF919F918F913F9139
:100760002F910F900FBE0F901F90189526E8230F22
:100770000296A11DB11DD2CF1F920F920FB60F92FC
:1007800011240BB60F922F933F934F935F936F9368
:100790007F938F939F93AF93BF93EF93FF9385E1E5
:1007A00092E00E94B202FF91EF91BF91AF919F91B1
:1007B0008F917F916F915F914F913F912F910F900A
:1007C0000BBE0F900FBE0F901F9018951F920F92A7
:1007D0000FB60F9211240BB60F922F938F939F9306
:1007E000EF93FF93E0912502F09126028081E09142
:1007F0002B02F0912C0282FD1DC0908180912E026F
:100800008F5F8F7320912F02821741F0E0912E02AB
:10081000F0E0EB5EFD4F958F80932E02FF91EF91FC
:100820009F918F912F910F900BBE0F900FBE0F9045
:100830001F9018958081F2CF789484B5826084BD32
:1008400084B5816084BD85B5826085BD85B58160D4
:1008500085BD80916E00816080936E001092810052
:10086000809181008260809381008091810081600D
:1008700080938100809180008160809380008091CE
:10088000B10084608093B1008091B000816080935A
:10089000B0008091910082608093910080919100DE
:1008A000816080939100809190008160809390009E
:1008B0008091A10082608093A1008091A10081605D
:1008C0008093A1008091A00081608093A00080911E
:1008D00021018260809321018091210181608093B8
:1008E00021018091200181608093200180917A0014
:1008F000846080937A0080917A00826080937A008D
:1009000080917A00816080937A0080917A0080687B
:1009100080937A001092C1008AE00E94930189E0DE
:100920000E94930188E00E94930187E00E94930156
:1009300085E00E94930184E00E94930183E00E947D
:10094000930182E00E9493018DE00E9493018CE06C
:100950000E9493018BE00E949301E0912502F091A7
:10096000260282E08083E0912102F091220210822F
:10097000E0912302F09124028FEC808310922D02EB
:10098000E0912902F0912A0286E08083E09127021B
:10099000F0912802808180618083E0912702F091AC
:1009A0002802808188608083E0912702F0912802EC
:1009B000808180688083E0912702F0912802808105
:1009C0008F7D808385E192E00E949C0204970CF465
:1009D00009C185E192E00E947A02833509F002C1E3
:1009E00085E192E00E947A02182F8093140285E13B
:1009F00092E00E947A02D82F8093130285E192E060
:100A00000E947A02C82F80931202E0EDE10FEA30D3
:100A100078F50E2E000CFF0B8827EE5EFA4F8F4FF5
:100A20000C9440061C052205280550055E05680546
:100A3000720578057E05800560E08AE00E94B201BB
:100A400060E041C060E08AE00E94B20160E045C021
:100A500060E08AE00E94B20160E089E00E94B20199
:100A600061E088E00E94B20160E087E00E94B2018C
:100A7000E0EDED0FEA3008F061C00E2E000CFF0B28
:100A80008827EA5BFA4F8F4F0C9440068205880551
:100A90008E05B405C205CC05D605DC05E205E405E6
:100AA00060E08AE00E94B20160E089E00E94B20149
:100AB00061E088E00E94B20161E0D7CF60E08AE0A7
:100AC0000E94B20161E089E00E94B20160E0C9CFFA
:100AD00060E08AE00E94B20161E089E00E94B20118
:100AE00060E0E7CF60E08AE00E94B20161E0B5CF4C
:100AF00060E08AE00E94B20161E0D7CF61E09DCF63
:100B000061E0A1CF60E085E00E94B20160E03FC0FB
:100B100060E085E00E94B20160E043C060E085E0F3
:100B20000E94B20160E084E00E94B20161E083E0D3
:100B30000E94B20160E082E00E94B201E0EDEC0FA1
:100B4000E83008F04FC00E2E000CFF0B8827E4554C
:100B5000FA4F8F4F0C944006E605F505FF05050694
:100B60000B060D060F06110660E085E00E94B2013B
:100B700060E084E00E94B20161E083E00E94B20183
:100B800061E0D9CF60E085E00E94B20161E084E0DD
:100B90000E94B20160E0CBCF60E085E00E94B2012C
:100BA00061E084E00E94B20160E0E7CF60E085E0B0
:100BB0000E94B20161E0B7CF60E085E00E94B2011F
:100BC00061E0D7CF61E09FCF61E0A3CF60E08DE02F
:100BD0000E94B20160E08CE00E94B20160E08BE014
:100BE0000E94B2010E944103EDCE60E08DE00E94C0
:100BF000B20160E08CE00E94B20161E0F0CF60E001
:100C00008DE00E94B20161E0E6CF60E08DE00E94DD
:100C1000B20161E0EFCF61E0DACF61E0E7CF61E000
:100C2000EFCF61E0F3CFE5E1F2E01382128288EECC
:100C300093E0A0E0B0E084839583A683B78384E04B
:100C400092E09183808385EC90E09587848784ECA3
:100C500090E09787868780EC90E0918B808B81EC89
:100C600090E0938B828B82EC90E0958B848B86EC6A
:100C700090E0978B868B118E128E138E148E0895B2
:100C8000EE0FFF1F881F8BBF0790F691E02D199480
:040C9000F894FFCF06
:100C940000000000D4023E026B0221039C027A028F
:020CA4008E02BE
:00000001FF
